:100000000C9414010C945B010C945B010C945B0147
:100010000C945B010C945B010C945B010C945B01F0
:100020000C945B010C945B010C942E160C94EA1555
:100030000C9474180C945B010C945B010C945B01A0
:100040000C945B010C945B010C945B010C945B01C0
:100050000C945B010C9450180C945B010C945B01A4
:100060000C945B010C945B010C945B010C945B01A0
:100070000C945B010C945B010C945B010C945B0190
:100080000C945B010C945B010C945B010C945B0180
:100090000C945B010C945B010C945B010C945B0170
:1000A0000C945B010C945B010C945B01165C1E00CC
:1000B0001F0020002100220023002400250026002C
:1000C00027002D002E002A002B0014001A00080023
:1000D000150017001C0018000C00120013002F0060
:1000E00030003100390004001600070009000A0042
:1000F0000B000D000E000F0033003400280000003C
:10010000E1001D001B000600190005001100100091
:1001100036003700E500520038000000E000E30040
:10012000E200000000002C0000000000E600E700F4
:10013000500051004F00000005010980A101850316
:1001400019012AB700150126B70095017510810025
:10015000C0050C0901A101850419012AA00215019D
:1001600026A002950175108100C005010906A101B4
:10017000050719E029E71500250195087501810299
:100180009501750881010507190029FF150026FF53
:100190000095067508810005081901290595057562
:1001A000019102950175039101C009023B00020112
:1001B00000A09609040000010301010009211101BA
:1001C00000012240000705810308000A090401001C
:1001D000010300000009211101000122320007057E
:1001E000820320000A1201100100000008EDFE0148
:1001F000000100010200011003360030005F006BB7
:1002000000650065006200000018036B0065006E69
:100210000064007200690063006B00300031003040
:10022000000000040309040011241FBECFEFDAE030
:10023000DEBFCDBF04B603FE27C080911A029091A5
:100240001B02A0911C02B0911D028730904BA74069
:10025000B04BD1F410921A0210921B0210921C02A1
:1002600010921D0214BE84B7877F84BF0FB6F89426
:10027000A895809160008861809360001092600072
:100280000FBEE0E0F8E3099511E0A0E0B1E0EAE696
:10029000F6E302C005900D92A035B107D9F722E030
:1002A000A0E5B1E001C01D92AA31B207E1F70E94BA
:1002B00009170C940F1B0C940000E8EDF0E080810E
:1002C0008E7F80831092E2001092DA001092E1009B
:1002D000A0EEB0E08C9181608C9380818F778083D9
:1002E00019BCA7EDB0E08C918E7F8C9380818F7EBE
:1002F00080831092030208952091E4003091E5007C
:1003000095E6A9012091EC00822F817020FF06C0A4
:100310008091E80080FF06C080E008952091E80009
:1003200022FD1AC080911002882389F0853089F05F
:100330008091EB0085FD0FC02091E4003091E50035
:1003400042175307F9F29150E1F684E0089582E0F4
:10035000089583E0089581E00895EF92FF920F934E
:100360001F93CF937C018B010E947C01C82F8111C8
:1003700017C08091E80085FD0BC08091E8008E7762
:100380008093E8000E947C01882399F3C82F08C05D
:10039000F70181917F018093F1000150110949F724
:1003A0008C2FCF911F910F91FF90EF900895809126
:1003B000120287FF13C08091E80082FF06C080917F
:1003C000E8008B778093E80004C0809110028111CF
:1003D000F2CF0895809110028823D9F38091E8002C
:1003E00080FFF8CF8091E8008E77ECCF982F909324
:1003F000E900242F762F50E0891731F07091EC003E
:100400002091ED005091F00021FD07C09F5F9730D3
:1004100071F78093E90081E008953091EB003E7F11
:100420003093EB003091ED003D7F3093ED00309143
:10043000EB0031603093EB007093EC002093ED0003
:100440005093F0002091EE0027FDE0CF80E008956A
:10045000CF92DF92EF92FF920F931F93CF93DF9390
:10046000C8EDD0E088818F7E8883E7EDF0E0808161
:100470008160808384E082BF81E080930302888171
:100480008E7F888302EE10E0F80110821092DA006D
:1004900081EEC82ED12CF601108288818F77888357
:1004A00088818068888388818F7D888319BC1092B9
:1004B00010021092110210920F0210920E0290EE92
:1004C000E92EF12CF70180818B7F80838881816008
:1004D000888342E060E080E00E94F601F6018081BE
:1004E0008E7F8083F8018081816080838081886035
:1004F0008083F70180818E7F8083888180618883FB
:10050000DF91CF911F910F91FF90EF90DF90CF90EF
:100510000895FC018091180290911902861797079F
:10052000A0F06115710529F49091E8009E779093F1
:10053000E80090E06115710551F4911108C08091B7
:10054000E80082FF34C080E00895BC01F2CF8091C2
:1005500010028823C1F18530C1F18091E80083FD4C
:1005600030C08091E80082FDEACF8091E80080FFF2
:10057000E1CF8091F3002091F200382F61157105D1
:1005800019F02830310558F091E02830310509F094
:1005900090E02091E8002E772093E800CBCF819166
:1005A0008093F100615071092F5F3F4FE7CF809139
:1005B0001002882341F0853041F08091E80083FFEC
:1005C000BECF81E0089582E0089583E0089580E041
:1005D0000895089580910502089588E198E00FB686
:1005E000F894A895809360000FBE90936000A89542
:1005F000F894DAE0CEEF28E3299320E0299314BEA3
:10060000FFCF08959C014FB7F8948091E901909134
:10061000EA01A091EB01B091EC014FBF821B930B5B
:1006200008952FB7F8948091E9019091EA01A09183
:10063000EB01B091EC012FBF08959C01FC013296B3
:100640009FEF80E04191461751F09F3F19F441110F
:1006500001C0982F8F5F8630A9F79F3F09F4089556
:10066000290F311D97FD3A95F90162830895809114
:10067000D20181111092D20108958091D1019091FF
:10068000D001892B9091CF01892B809352019091B9
:10069000D201992391F0892B8093520120E084E5C7
:1006A00091E0FC013191CF0131112F5FF1E08A35EA
:1006B0009F07B9F721110E943703E091E701F091FC
:1006C000E801309731F00280F381E02D82E591E07E
:1006D000099408952EE0929F800D1124982F977011
:1006E00086958695869525E0829FF0011124EF5529
:1006F000FE4F50E040E080E0219130E0092E02C042
:10070000369527950A94E2F721703327042E01C00D
:10071000220F0A94EAF7822B4F5F5F4F4530510555
:1007200059F708952EE0929F800D1124982F97700D
:1007300041E001C0440F9A95EAF786958695869523
:1007400095E0899FF0011124EF55FE4F90E080E085
:1007500070E05191DF0111979B01082E02C0369580
:1007600027950A94E2F72170219525272423252730
:100770002C9301968530910561F708952091A00191
:1007800090916F0156E0291302C080E0089530E097
:10079000529FF001539FF00D1124E059FE4F7181DB
:1007A000761306C07081781303C07281741304C07D
:1007B0002F5F3F4F2770E7CF81E00895452B39F039
:1007C000682381E06F3F09F080E08170089581E047
:1007D000FCCF8091A00190916F01981301C0089502
:1007E0008F5F8770FACF882341F080959091D10177
:1007F00089238093D1010C943D030895882339F017
:100800009091D101982B9093D1010C943D030895C0
:1008100020916101309162012817390771F090939E
:10082000620180936101E091E701F091E801309766
:1008300021F00084F185E02D0994089520915F0155
:10084000309160012817390771F09093600180930F
:100850005F01E091E701F091E801309721F0068017
:10086000F781E02D0994089590E080E00E941E0435
:1008700090E080E00E9408041092D0011092CF0115
:100880000C943D036093D7017093D8018093D901F4
:100890009093DA010C9434040F931F9341E050E0DD
:1008A00060E070E004C0440F551F661F771F8A95F3
:1008B000D2F7CB01BA016095709580959095009123
:1008C000D7011091D8012091D9013091DA0160232C
:1008D0007123822393231F910F910C9442049091D2
:1008E000CE01809589238093CE01282F277039F47B
:1008F000282F082E000C330B9217130621F4909129
:10090000DC0192FF07C08595859585950E944C0472
:100910001092CE0108950F931F9341E050E060E0E4
:1009200070E004C0440F551F661F771F8A95D2F7E9
:100930008091D7019091D801A091D901B091DA01AD
:100940008A019B01082B192B2A2B3B2BC901B801CB
:100950001F910F910C9442046093D3017093D401C2
:100960008093D5019093D6010C9434048823B1F17F
:100970009CEF980F913A70F4E4E5F1E091918913BE
:1009800003C0DF0111971C9241E0EA35F407B1F78B
:100990000C943D0390E2980F983088F4877021E022
:1009A00030E0A90102C0440F551F8A95E2F7CA0141
:1009B00080959091D10189238093D101E9CF9BE566
:1009C000980F933020F490E080E00C941E04885A35
:1009D000873120F490E080E00C9408040895E091C1
:1009E000E701F091E801309721F00190F081E02DCE
:1009F000099480E00895F894E82FE295EF70F0E014
:100A000031A1282F2F7081E090E001C0880F2A9536
:100A1000EAF7982F9095932391A392A1892B82A313
:100A2000789408959091DB0192FF06C0282F2871D9
:100A30002830F9F4877F846093FF06C0282F28713F
:100A40002831F1F4877E84612091DC0120FF06C00B
:100A5000382F38713830D9F4877F816021FF06C084
:100A6000282F28712831D1F4877E816194FD877EFB
:100A70000895282F24712430F9F68B7F8860DCCF0D
:100A8000282F2471243101F78B7E8861DDCF382F28
:100A90003171313019F78E7F8860E0CF282F2171B6
:100AA000213121F78E7E8861E1CFCF93DF93972F9D
:100AB00070E02EE0929F600D711D1124FB0136E461
:100AC000839FE00DF11D1124EE0FFF1FE455FF4F32
:100AD000C591D491CE01C238D105C9F108F03EC00C
:100AE000C133D10509F49AC058F5C932D10509F4CA
:100AF0008EC0CA32D10509F498C0C11540E5D407AB
:100B000008F0C1C0C11520E4D20708F02FC1C03ED3
:100B1000D10508F09EC0C03CD10508F017C1C83A05
:100B2000D10508F089C0C53AD10508F007C1C13028
:100B3000D10511F1209709F443C02497E8F440C08F
:100B4000C533D10509F45CC0C933D105B1F6209194
:100B5000DB01237089F080EE90E00EC0C33ED1052A
:100B600091F168F4C03ED105F9F0C23ED10529F6F5
:100B70002091DB0122FD20C0DF91CF910895C63E78
:100B8000D10561F1C73ED10581F1C43ED10509F01F
:100B9000B4CF2091DC0121FFEFCF8091DB0184FDF8
:100BA0000FC087EE90E0E8CF2091DB0120FD24C14B
:100BB0003091DC0130FFE0CF83EE90E024FFDCCF0A
:100BC00090E080E0D9CF2091DB0122FD18C1309167
:100BD000DC0130FDC0CF24FFCFCFF2CF2091DB016D
:100BE00023FFCACF24FDECCFDCCF2091DB0123FD16
:100BF00009C13091DC0131FFEECF84EE90E0BCCF33
:100C00002091DB0125FFB8CF89E290E0B5CF20919C
:100C1000DB0125FFB1CF85E390E0AECF2091DB0172
:100C200026FFAACF8AE290E0A7CF2091DB0126FF22
:100C3000A3CF81E390E0A0CFCF3BD10508F6C85AFF
:100C4000D0E0CC0FDD1FC25FDE4F888199819464B4
:100C500093CFC11530E2D30750F4C11541E0D4075A
:100C600008F08ACFC83ED10508F486CFA9CFC115B8
:100C700080E3D80708F072C0FE01FF70EE0FFF1F7F
:100C8000E85CFE4F68C0C11595E5D90748F5C11568
:100C900024E5D20708F099C0C11532E5D30750F416
:100CA000C11541E5D40708F465C09C2F8827816FE2
:100CB000906A62CF9C2F96959695AE01437055270A
:100CC000C115D34508F072C021E030E002C0220F08
:100CD000331F4A95E2F740E2949FC001112462C09D
:100CE000C11599E5D907A0F4C11528E5D20708F088
:100CF00071C0C11536E5D30708F062CF8C2F0E9472
:100D0000120590E0982F882788279F71906234CF32
:100D1000C1154AE5D40708F462C0CE01905681158A
:100D2000904208F04DCF8D2F8F710E94120590E0F8
:100D3000982F882788279F718C2BE8CFC55AD0E041
:100D4000C55FDE4F888190E0906416CFFE01EE0F04
:100D5000FF1FE854F040859194910ECFCE01992762
:100D6000D3FF02C0986C08CF906C06CFCE019F7065
:100D7000906A02CF9E01E4E036952795EA95E1F767
:100D800023708C2F86958695837030E2839FC001F7
:100D90001124922BC37021E030E002C0220F331FD8
:100DA000CA95E2F7822B932B9C68E6CE21E030E0D7
:100DB00002C0220F331F4A95E2F740E2949FC00120
:100DC0001124822B932B9A68D7CE9C2F8827846F6F
:100DD000906AD2CE9C2F8827806F906ACDCE8C2FC0
:100DE0008F700E94120534E0D695C7953A95E1F7C9
:100DF000CF709C2F9069C0CE89E390E0BDCE82EE8B
:100E000090E0BACE86EE90E0B7CEBF92CF92DF925E
:100E1000EF92FF920F931F93CF93DF938C01C090BB
:100E2000D701D090D801E090D901F090DA018091FB
:100E3000D3019091D401A091D501B091D601C82AD7
:100E4000D92AEA2AFB2ACFE1D0E0BC2ED701C6017D
:100E50000C2E04C0B695A795979587950A94D2F75E
:100E600080FD0EC0219788F7B12C8B2DDF91CF919B
:100E70001F910F91FF90EF90DF90CF90BF9008955A
:100E8000B8018C2F0E945505019761F3EECFCF93E7
:100E9000DF93EC010E940507BE01DF91CF910C9416
:100EA00055050E944707292F2F7092959F709250E9
:100EB0009E3078F4E92FF0E0EF5EF44E0C94B61813
:100EC000803F19F020F4883E20F481E00895843FAB
:100ED000E1F380E00895883EC0F3813FD1F7F5CF7C
:100EE000822F86958695869508951F93CF93DF93DD
:100EF00000D000D00F92CDB7DEB749835A838981E5
:100F00009A81662331F1222321F10E940507182FCF
:100F1000682F89819A810E9492038A81E981F0E099
:100F20009EE0899FE00DF11D112486E4189FE00DDD
:100F3000F11D1124EE0FFF1FE455FF4F8591949191
:100F40000F900F900F900F900F90DF91CF911F9106
:100F500008950E946A03182FE0CFCF9384E090E0B9
:100F60000E94DE18C82F82E290E00E94DE18982FBF
:100F70008C2FCF910895CF93DF9300D00F92CDB7F0
:100F8000DEB790911002943019F589837B836A83D0
:100F900082E08093E9008FEF9091E800815095FD09
:100FA00006C095ED9A95F1F700008111F5CF80917B
:100FB000E80085FF0DC050E040E063E070E0CE0146
:100FC00001960E94AD018091E8008E778093E80041
:100FD0000F900F900F90DF91CF910895BC0184E0A6
:100FE0000C94BB07BC0183E00C94BB07CF93DF9349
:100FF000EC0181E08093E9008FEF9091E80081504F
:1010000095FD06C095ED9A95F1F700008111F5CF99
:101010008091E80085FF14C050E040E068E070E097
:10102000CE010E94AD018091E8008E778093E800A8
:1010300088E0FE01A6E0B2E001900D928A95E1F70A
:10104000DF91CF9108958F929F92AF92BF92DF92DE
:10105000EF92FF920F931F93CF93DF93CCE3D1E0F6
:101060000DED11E0D12CEE24E394F12C8991F8944C
:10107000E82FE295EF70F0E021A18F70A70102C088
:10108000440F551F8A95E2F7CA01922F982B91A31E
:1010900092A18095892382A3789400C0E1E4F1E0D5
:1010A00030E020E0B12CA12C4191A42FA295AF708B
:1010B000B0E090968C9190E04F7002C09595879526
:1010C0004A95E2F780FD67C0C701022E02C0880F73
:1010D000991F0A94E2F7A82AB92A2F5F3F4F2E30B2
:1010E000310511F7FE01319780810E94FB0450EA1F
:1010F0005A95F1F7F80180819181A816B90609F493
:101100004DC0B182A08281E0D82A0E5F1F4FF1E06E
:10111000C134DF0709F0AACFDD2009F441C081E026
:1011200080935C010E94110390935B0180935A01AC
:1011300080915A0190915B010E9402030B97A0F1EC
:101140008091DD019091DE019093EE018093ED019D
:101150008091DF019091E0019093F0018093EF0185
:101160008091E1019091E2019093F2018093F1016D
:101170008091E3019091E4019093F4018093F30155
:101180008091E5019091E6019093F6018093F5013D
:1011900010925C0109C090E080E09DCF80E0B4CF68
:1011A00080915C018111C4CF8091640190916501AF
:1011B0000E940203893E934060F160916301C62F53
:1011C000D0E0662777276C1B7D0B072E000C880B61
:1011D000990B0E94D51927EA39E747E45DE30E949D
:1011E000A21A4B015C01BE01DD0F880B990B0E9416
:1011F000D5199B01AC01C501B4010E9421190E94BF
:10120000A419609363010E94110390936501809378
:1012100064018D2DDF91CF911F910F91FF90EF9081
:10122000DF90BF90AF909F908F9008956AEE7EEF11
:1012300090E080E00E940A1960E082E090E00E9465
:10124000EC1860E083E090E00E94EC181092D3016B
:101250001092D4011092D5011092D60160E084E082
:1012600090E00E94EC1860E082E290E00E94EC18AE
:1012700060E085E090E00E94EC1860E086E090E09D
:101280000E94EC186FEF87E090E00E94EC1840E0BD
:1012900050E0BA0188E090E00E94FE1860E08DE026
:1012A00090E00E94EC1840E050E0BA0188E190E044
:1012B0000E94FE1860E087E190E00E94EC1840E098
:1012C00050E0BA018CE190E00E94FE1870E060E00E
:1012D00080E290E00E940A1940E050E0BA0188E103
:1012E00090E00E94FE1840E050E0BA018FE090E0EC
:1012F0000E94FE1840E050E0BA0183E190E00C94B7
:10130000FE18CF93C091DC01C2FB992790F9981782
:1013100081F080FBC2F9C093DC016091DB0184E0C5
:1013200090E00E94EC186C2F82E290E0CF910C9438
:10133000EC18CF9108951092D101E4E5F1E086E038
:10134000DF011D928A95E9F70C9434041F93CF9323
:10135000DF93CDB7DEB7AA970FB6F894DEBF0FBE06
:10136000CDBF82E192E02091F100FC012193CF01F9
:10137000F2E08A319F07B9F780911302833009F4B4
:101380006FC0B8F4813009F446C0823009F4B0C0AF
:101390008091E80083FF7BC280911202909113023A
:1013A0009A3008F074C2E92FF0E0E15EF44E0C943C
:1013B000B6188A3009F48BC08B3009F46EC08930BE
:1013C00039F780911202813219F7809116029091BB
:1013D00017020297E8F68091E800877F8093E80083
:1013E0008091E80082FF37C09091F3008091F20075
:1013F000029729F48091F1008B7F813021F4809154
:10140000F100809305028091E8008B778093E800DB
:101410000E94D701BDCF80911202813A09F0B8CF66
:101420008091E800877F8093E80080911602909178
:101430001702892B61F468E086E092E070E00E9478
:1014400089028091E8008B778093E800A1CF60E06B
:1014500090E080E0F3CF809110028111C1CF98CF4E
:1014600080911202813A09F093CF809116029091F7
:101470001702892B09F08CCF8091E800877F809339
:10148000E8008091E80080FFFCCF80910A01809302
:10149000F1008091E8008E77B9CF809112028132FD
:1014A00009F076CF8091160290911702892B09F0EE
:1014B0006FCF8091E800877F8093E8000E94D7017A
:1014C0008091140280930A010E949B0961CF809150
:1014D0001202813209F05CCF8091E800877F80930F
:1014E000E8000E94D701809115028093040250CF3A
:1014F00080911202813A09F04BCF8091E800877FFA
:101500008093E8008091E80080FFFCCF8091040286
:10151000BECF803899F0823809F0B9C180911602A7
:101520008F70873008F0B3C18093E9008091EB00A1
:1015300085FB882780F91092E90006C080910E0291
:1015400090910F02911182609091E800977F9093A3
:10155000E8008093F1001092F1008091E8008E770E
:1015600092C1882309F480C1823009F090C1809132
:101570001402811183C1809116028F702FEF280F02
:10158000263008F084C18093E9002091EB0020FF11
:1015900075C1933031F48091EB0080628093EB0051
:1015A0006DC19091EB0090619093EB0021E030E0F1
:1015B00001C0220F8A95EAF72093EA001092EA0010
:1015C0008091EB008860EACF811161C11091140213
:1015D0001F778091E3008078812B8093E3008091D6
:1015E000E800877F8093E8000E94D7018091E8009F
:1015F00080FFFCCF8091E30080688093E30082E06D
:10160000111183E08093100242C18058823008F0AB
:101610003EC180911402909115028C3D23E0920707
:10162000A1F583E08A838AE289834FB7F894DE01CB
:10163000139620E03EE051E2E32FF0E05093570094
:10164000E49120FF03C0E295EF703F5FEF708E2FB3
:1016500090E0EA30C0F0C7968D939D932F5F2431C0
:1016600059F74FBF8091E800877F8093E8006AE2D6
:1016700070E0CE0101960E9489028091E8008B778C
:101680008093E80004C1C096E7CF409116025091C4
:101690001702292F33272330310509F444C078F588
:1016A0002130310509F46FC08BE390E0EAEAF1E004
:1016B0002230310509F0EBC02091E800277F20930C
:1016C000E80020911802309119028217930708F45C
:1016D0009C0140E02115310509F064C0411162C050
:1016E0008091E80082FDC9CF80911002882329F201
:1016F000853019F28091E80083FFF2CFBECF21320E
:101700003105A9F12232310509F0C1C04115510559
:1017100009F443C04130510509F0B9C082E390E0BB
:10172000E8E3F1E0C9CF992781309105C1F0009736
:1017300059F0029709F0ABC0E7EFF1E0E4918E2F8A
:1017400090E0E7EFF1E007C0E3E2F2E0E4918E2FF2
:1017500090E0E3E2F2E0009709F499C0ADCFE9E050
:10176000F2E0E4918E2F90E0E9E0F2E0F4CF411551
:10177000510571F04130510509F089C089E090E0D0
:10178000E5EDF1E099CF82E190E0E5EEF1E094CF74
:1017900089E090E0ECEBF1E08FCF80E490E0EAE6C6
:1017A000F1E08ACF80911002882309F466CF85305A
:1017B00009F463CF8091E80083FD5FCF8091E8005A
:1017C00082FD8ECF8091E80080FF84CF9091F3005E
:1017D0008091F2002115310519F08830910550F003
:1017E00041E0089709F040E08091E8008E7780930F
:1017F000E80070CF44914093F100319621503109B7
:101800000196E8CF803809F042C08091E800877FD8
:101810008093E800809111028093F1009ECE8111A7
:1018200036C010911402123090F58091E800877F45
:101830008093E800109311020E94D701112311F048
:1018400084E005C08091E30087FDFACF81E08093BA
:10185000100242E061EC81E00E94F60142E261EC9C
:1018600082E00E94F60113C080911402813079F465
:1018700081E0933009F080E080930F021092E9003C
:101880008091E800877F8093E8000E94D7018091D3
:10189000E80083FF0AC08091E800877F8093E8001A
:1018A0008091EB0080628093EB00AA960FB6F894CB
:1018B000DEBF0FBECDBFDF91CF911F9108950F9373
:1018C0001F9341E050E060E070E08A019B0104C09A
:1018D000000F111F221F331F8A95D2F7C901B801CB
:1018E0000E94AC041F910F910C949B098B3109F459
:1018F0006EC040F58B3071F078F4863009F450C03A
:1019000020F4853059F180E00895873009F451C002
:101910008830C9F781E00895803109F466C068F421
:101920008E3089F79091F801892F8B7F92FF846028
:101930008093F80182FD55C0EDCF863159F389318E
:1019400049F3E1CF8A3249F1B8F4873211F120F43A
:101950008E31C8F28D511EC08932A9F60E949B09B2
:101960002FEF84E39CE0215080409040E1F700C0DD
:1019700000000E94ED02CECF833440F48A3308F099
:101980003FC0853331F0883329F2BDCF833409F06D
:10199000BACF80E00E945F0CBDCF0E941609BACF7B
:1019A0008091F801807F8093F80181E08093680145
:1019B00008959091F801892F8E7F90FF8160809328
:1019C000F80180FDA7CF817F8093F801A3CF90918C
:1019D000F801892F8D7F91FF82608093F80181FF4C
:1019E00099CF8091F8018160EFCF9091F801892F14
:1019F000877F93FF88608093F80183FDF2CF8ACFC1
:101A00008953C8CFCF93C82F882351F18CEF8C0F07
:101A1000813A08F048C0809168018823C1F0813084
:101A200009F110926801E4E5F1E08AE591E0DF0157
:101A30002D91C21761F121E0AA35B207C9F76C2FC9
:101A400082E591E00E941D03CF910C943D038091AB
:101A5000D101823241F78C2F0E94760C882319F332
:101A6000CF9108958091D1018232A9F3C43161F000
:101A700028F4CB3039F080E08170F0CFC93221F00A
:101A8000C833C9F781E0F8CF10926801F4CF2191F3
:101A9000C21303C0DF0111971C928E179F07B9F77D
:101AA0000E943D03CCCF80E28C0F883068F4C77071
:101AB00021E030E001C0220FCA95EAF78091D10100
:101AC000822B8093D101C0CFEBE5EC0FE33040F4E3
:101AD000F0E0E55FFE4F808190E0CF910C941E0412
:101AE000C85AC73108F0BCCFEC2FF0E0EE0FFF1F53
:101AF000E25FFE4F80819181CF910C9408040F9397
:101B00001F93CF93DF93C42FD22FFC0182818823B0
:101B1000A1F0409366010E94110390935E018093AF
:101B20005D01C77081E001C0880FCA95EAF7DF91B7
:101B3000CF911F910F910C94FE0310916601141325
:101B400038C080915D0190915E010E940203883C43
:101B5000910578F5C0E2CD0F1D17B9F080E2810F35
:101B6000883040F4177081E001C0880F1A95EAF7B9
:101B70000E94F303C83048F481E09D2F977001C0A4
:101B8000880F9A95EAF70E94FE03802F0E94020DAB
:101B9000802F0E94B604C83098F4D77081E001C04D
:101BA000880FDA95EAF7DF91CF911F910F910C948E
:101BB000F303C77081E001C0880FCA95EAF7F3CF3D
:101BC000DF91CF911F910F9108952F923F924F92E5
:101BD0005F926F927F928F929F92AF92BF92CF92BD
:101BE000DF92EF92FF920F931F93CF93DF937C01CD
:101BF000FC0143815481618180810E94DE03282E93
:101C00008111FFC421E0F70140815181628173811C
:101C100084810E947507EC01F7018281882309F411
:101C200063C0CE0190568115F0E29F0750F0905EA0
:101C3000811520E1920728F0915C81159F4108F001
:101C40008FC0CE0199279C012450310924323105DF
:101C500020F08B970E9708F047C080916401909117
:101C600065010097D9F10E9402039C0150E040E019
:101C700060E67AEE80E090E00E949718CA01B90110
:101C800025E030E040E050E00E949718C0906301EA
:101C90002F3F310519F010F02FEF30E0D12C2C1927
:101CA0003D09B90190E080E00E94D31927EA39E7A5
:101CB00047E45DE30E94A21A0E948D194B015C016A
:101CC000B601DD0C880B990B0E94D519A501940172
:101CD0000E9421190E94A419609363010E941103BC
:101CE0009093650180936401C43F8CE5D80709F4A3
:101CF0009BC008F03EC0C93DECE5DE0709F48EC08C
:101D0000CA3DFCE5DF0709F4A7C0C83D2CE5D207B2
:101D1000E1F506E221EE41EE68ED7CE5C7010E94A7
:101D20007F0D8091CE01877009F46BC4F701828129
:101D3000882309F466C482E0DF91CF911F910F914F
:101D4000FF90EF90DF90CF90BF90AF909F908F90DB
:101D50007F906F905F904F903F902F900C946F0406
:101D600090E080E0CF3FD10511F008F06CCFCE01BC
:101D70006ACFC63F3CE5D30709F462C008F45AC0F5
:101D8000C73F9CE5D90709F461C0F7018281882328
:101D900009F4BDC310926601C230FCE5DF0708F408
:101DA0003FC1C6312CE5D20730F0CE018B5F9C4598
:101DB000099708F035C10E94AD079093DC0180932C
:101DC000DB01C0313CE5D30709F4F9C008F087C056
:101DD000C8309CE5D90709F4E8C008F056C0C43003
:101DE000FCE5DF0709F4D9C0E8F5C2303CE5D307CC
:101DF00009F4C9C0C330DC4509F4CBC06091DB01F4
:101E0000C091DC0184E090E00E94EC186C2F82E22B
:101E100090E00E94EC180E949B0983CF07E225EE18
:101E200045EE69ED7CE57ACF06E221EE40EE64EF07
:101E30007CE574CF07E225EE44EE65EF7CE56ECFDE
:101E400006E221EE42EE66EF7CE568CF07E225EE82
:101E500046EE67EF7CE562CF08E221E045EE6AEDF1
:101E60007CE55CCF8091DB018061C6309CE5D907C1
:101E700009F48CC08091DB018860C730DC4508F430
:101E800085C08091DB01806281C08091DB018D7F04
:101E9000CC30FCE5DF0709F479C070F48091DB01F8
:101EA0008C60CA303CE5D30709F470C008F481C0E7
:101EB0008091DB018E7F6AC08091DB01877FCE300D
:101EC0009CE5D90709F462C08091DB018B7FCF309C
:101ED000DC4508F45BC08091DB018F7E57C0CC3FAE
:101EE000FCE5DF0709F45DC030F5C3313CE5D307FD
:101EF00009F46DC078F4C1319CE5D90709F463C0D9
:101F0000C231DC4509F07ACF0E949B098091DB0148
:101F10008F773CC0C531FCE5DF0709F460C008F4E9
:101F200074C08091DC018160CB3FDC4509F066CF55
:101F30008093DC0163CFC1158DE5D80709F44BC050
:101F400088F48091DC018D7FCE3FECE5DE0781F3E4
:101F50008091DC018E7FCF3FDC4550F38091DC0126
:101F60008360E6CFC2302DE5D20709F457C008F4EC
:101F700042C060E0C330DD4509F040CF8EE090E024
:101F80000E94EC183BCF8091DB0181608093DB01E4
:101F900035CF8091DB018260F9CF8091DB018460D5
:101FA000F5CF8091DC018260C3CF8091DB0180643A
:101FB000EDCF0E949B098091DB018068E7CF809183
:101FC000DB018F7DE3CF8091DB018F7BDFCF8091C1
:101FD000DB01837FDBCF8091DC018C7FA9CF8091F7
:101FE000DB0182FB992790F921E0922790FB82F98F
:101FF00090FB83F9CBCF8091DC01982F9095917065
:102000008E7F892B90FB81F993CF0E949B09909141
:10201000DB01892F97FB87F98058B8CF61E0AECFFD
:10202000C6319CE5D90709F088C28091D1018A7A2E
:1020300091E009F490E09093670169E2811165E312
:1020400082E591E00E941D030E943D036ACE85E374
:1020500066C20E949B09EFEFF4E32CE0E150F040F0
:102060002040E1F700C000000E94ED025ACE81E05E
:1020700084C280E082C2CE010E946A03082F8EC211
:102080002C2F2F70C22EC07F19F0C29490EFC9225E
:10209000DD20C9F0CC2069F080E28D0F883010F08F
:1020A00011110BC08091D101C82AC092D1010E94A8
:1020B0003D038D2F0E94020D18C08091D001C82AC7
:1020C000C092D001F4CF8D2F0E94B604CC2069F0CD
:1020D000C094D05ED83010F0111140C08091D10171
:1020E000C822C092D1010E943D03E32DE850FF0BAE
:1020F000349710F40E94EF042220A9F08091CE01C1
:1021000080FD11C0F70112828595859585950E9405
:102110008B04C7010E94E50D8091CE0185958595C0
:1021200085950E944C0420E0F70140815181628135
:1021300073818481DF91CF911F910F91FF90EF9078
:10214000DF90CF90BF90AF909F908F907F906F90D7
:102150005F904F903F902F900C9475078091D00125
:10216000C822C092D001BFCF3C2F3F70B32EC07F9A
:10217000C03219F0B29480EFB822112369F0113007
:1021800071F1DD20B9F1002379F1F701858180FF3C
:1021900090CF8F70858328C0DD20A9F09091D20167
:1021A000892F8B29011103C00E94FE039ECF0130AD
:1021B000D9F72091DC0122FD98CF981709F495CF2B
:1021C0008093D20192CF011106C00E9437038B2D5C
:1021D0000E94F3038ACF013009F487CFF6CFDD20C8
:1021E00029F0033008F081CF8B2DDECF023008F0CC
:1021F0007CCFEDCF002359F3193309F081C1FFEFF4
:1022000027EE33E0F15020403040E1F700C00000FD
:1022100077C18C2F86958695837069F0813009F09F
:1022200064CF8D2F9C2F9370D11002C090E080E07E
:102230000E9408045ACF8D2F9C2F9370D11002C09A
:1022400090E080E00E941E0450CF8C2F837009F034
:1022500065C0D1104ACF8D2F829586958770880FE3
:10226000880F6D2F6F70862E912CB12CA12C082E0B
:1022700004C0880C991CAA1CBB1C0A94D2F740E02D
:1022800050E0BA01D4FF0FC04FE050E060E070E0D2
:1022900004C0440F551F661F771F8A95D2F74095DB
:1022A000509560957095C695C695C370C23019F16A
:1022B000D8F44090D3015090D4016090D501709033
:1022C000D601C13069F0482959296A297B29CB01F7
:1022D000BA0164217521862197210E94AC0405CFA3
:1022E00084289528A628B728CB01BA01682979291E
:1022F0008A299B29F2CF482959296A297B2980906C
:10230000D3019090D401A090D501B090D601CB011B
:10231000BA01682579258A259B25DFCF8695DD20A2
:1023200011F08C2F8170882309F4DFCE8D2F8295D8
:1023300086958770880F880F6D2F6F70862E912C71
:10234000B12CA12C082E04C0880C991CAA1CBB1C03
:102350000A94D2F740E050E0BA01D4FF0FC04FE03A
:1023600050E060E070E004C0440F551F661F771F07
:102370008A95D2F74095509560957095C695C6950B
:10238000C370C23019F1D8F44090D7015090D801F1
:102390006090D9017090DA01C13069F0482959295B
:1023A0006A297B29CB01BA016421752186219721F5
:1023B0000E9442049ACE84289528A628B728CB01EB
:1023C000BA01682979298A299B29F2CF48295929F4
:1023D0006A297B298090D7019090D801A090D901DB
:1023E000B090DA01CB01BA01682579258A259B25B1
:1023F000DFCFCF70DD2029F08C2F0E948B048D2F32
:10240000D3CE8D2F0E94F3038C2F0E944C046DCEEF
:102410008D2F123F09F44DC068F4103F21F1113F98
:1024200009F43FC0DD2009F466C0011142CE8C2FB3
:102430008F713CC0133F09F441C0143F99F7DD2070
:1024400009F44FC0CF718C2F0E948B048091DC0166
:1024500082FD07C0E8E0CE9FC00111248360809315
:10246000CE018C2F23C0DD20C1F0023008F03DCE1C
:10247000CF7161E070E080E090E004C0660F771FEC
:10248000881F991FCA95D2F78090D7019090D801E4
:10249000A090D901B090DA01A7CF033008F025CE83
:1024A000E7CF8C2F8F71DD2009F4AFCF0E948B0412
:1024B0001CCE8C2F8F71DD20C9F3A7CF60E070E0B8
:1024C000CB01DD2009F474CFCF7161E070E080E0D2
:1024D00090E004C0660F771F881F991FCA95D2F736
:1024E00067CF81E00E946F04023008F4FECD82E0E5
:1024F0000E946F04FACD002339F0893309F47FCEAE
:102500008D2F0E94B604F1CD8C2F8F717ECFC631F6
:10251000DC45A9F580916701811199CD89E2E4E557
:10252000F1E02AE531E09191891303C0DF011197B1
:102530001C922E173F07B9F787CDCB352DE5D20773
:1025400009F495CD58F4C1158CE5D80709F481CD6F
:10255000CF3DDC45A1F40E941609E3CBCC35EDE577
:10256000DE0709F486CDCD35DD4549F48091DC01E7
:1025700082FB882780F991E089270E948109F70171
:102580008281C081D181882309F475CDCE010E945A
:102590000507082F682FCE010E949203BE01802FED
:1025A0000E945505D82FC92F182FF701D280C5805A
:1025B0000C2D02950F708091CE018770A1F0DD2067
:1025C00089F0892F807F803421F080E28D0F883060
:1025D00050F082E00E946F048091CE018770222427
:1025E00023948111212C3C2E32942FE03222FBE0E7
:1025F000F31508F47ACDE32DF0E0E75DF44E0C948A
:10260000B618DF91CF911F910F91FF90EF90DF905F
:10261000CF90BF90AF909F908F907F906F905F9082
:102620004F903F902F900895BF92CF92DF92EF92FC
:10263000FF920F931F93CF93DF9380916E01807F62
:1026400061F480916B01882341F0C091A00186E084
:10265000B82E80916F018C130AC0DF91CF911F912A
:102660000F91FF90EF90DF90CF90BF900895F09082
:102670006901E0906A01C0906C01D0906D01A601E3
:102680006E2D8F2D0E94DE03D0E081113EC0BC9ED6
:102690008001BD9E100D1124F801E059FE4F5181BB
:1026A0005E1133C040814F1130C0828181112DC035
:1026B000E380F480EC18FD0820E060916B017091DC
:1026C0006C0180916D010E94750788ECE816F10499
:1026D000E0F480916E018F70806180936E01F8014B
:1026E000EB58FE4F80818F708061808389E691E096
:1026F0000E94E50DDF91CF911F910F91FF90EF9018
:10270000DF90CF90BF900C94E9032196C770A1CFC2
:102710005F926F927F928F929F92AF92BF92CF9271
:10272000DF92EF92FF920F931F93CF93DF93CDB77A
:10273000DEB761970FB6F894DEBF0FBECDBF8C0138
:1027400085E0F801DE011D9601900D928A95E1F772
:10275000F8017080E180628089E6A82E81E0B82EC1
:1027600080906C0190906D01A40160916A0180914C
:1027700069010E94DE03811180C1F801C380D48009
:10278000F0906B01C601881999094C0120E0409135
:10279000690150916A01FF2009F429C16F2D7091E0
:1027A0006C0180916D010E94750750906E0198EC4C
:1027B0008916910408F0D3C040916C0150916D01CD
:1027C000B0906901A0906A01852D807F6A2D09F083
:1027D00080C08B2D0E94DE03F62C81112AC0EA10E6
:1027E00028C07B1026C0611024C0852D8F708061A9
:1027F00080936E0189E691E00E94E50D80916E0163
:10280000F80185838F2D61960FB6F894DEBF0FBE59
:10281000CDBFDF91CF911F910F91FF90EF90DF908F
:10282000CF90BF90AF909F908F907F906F905F9070
:10283000089520E04091690150916A0160916B0117
:1028400070916C0180916D010E947507A6016E2D3B
:10285000872D0E94DE03811124C081E08625F82F98
:10286000F170CF2E80FF2BC0462D6E2D872D0E943C
:10287000BE03D82E811123C07D86EE868D859E8570
:102880000E944707292F22952F70223060F02430B4
:1028900088F49F7061F0F8019581907F41F4FD2CE0
:1028A000B1CF80E0DCCF9F7011F08823C1F3805E50
:1028B0008830A8F3C8010E94E50DDC2CF0CF66201B
:1028C00009F4A0CF80916E01816080936E01F12C9C
:1028D00099CF8B2D0E94DE03811114C0EA1012C023
:1028E0007B1010C061100EC0F8015582C8010E9413
:1028F000E50D86E0F801A9E6B1E001900D928A9518
:10290000E1F780CF7D86EE868D859E850E945107FA
:10291000882309F16620F9F080916E01803270F011
:102920002091690130916A0138872F831986DB86EF
:10293000CA868C87CE0107960E94E50D86E0F801D5
:10294000A9E6B1E001900D928A95E1F70E94141377
:10295000FF24F39457CFC8010E94E50DF9CF852DD0
:10296000807F51F489E691E00E94E50D86E0F50153
:1029700011928A95E9F7ABCF9090690180906A0136
:1029800040916C0150916D01682D892D0E94DE03EC
:10299000811111C0E8100FC079100DC061100BC07B
:1029A000F8015582C8010E94E50D86E0F5011192FB
:1029B0008A95E9F727CF7D86EE868D859E850E94D4
:1029C0005107882341F2662031F280916E018032F6
:1029D00008F4B4CF2091690130916A013A832983C8
:1029E0001B82DD82CC828E83CE010196A5CF60E072
:1029F00070916C0180916D010E947507F8EC8F1643
:102A0000910498F6F62C662009F4A5CFD0906901C0
:102A1000C0906A0140916C0150916D016C2D8D2D1B
:102A20000E94DE03811118C0EC1016C07D1014C086
:102A300080916E0180FD5DCF982F907F09F459CF72
:102A4000F8018583903F09F451CF982F907F905FD4
:102A50008F70892B85834ACF7D86EE868D859E85F6
:102A60000E94510781116ACF80916E01816080932D
:102A70006E01C8010E94E50DC5CE662009F46BCF3A
:102A80007D86EE868D859E850E945107F82E8823CF
:102A900009F461CF86E0F801A9E6B1E001900D925A
:102AA0008A95E1F78091690190916A010E94470738
:102AB0000E941413A7CE1F93CF93DF93CDB7DEB739
:102AC00067970FB6F894DEBF0FBECDBF342F4B8B88
:102AD000252F5C8B6D8B7E8B8F8B8E899F896111EF
:102AE0001092D0011A8A198A3D872E876F87998B99
:102AF000888B86E0FE013D96DE01179601900D92CF
:102B00008A95E1F7CE0107960E948813811111C0C2
:102B100086E0FE013796DE01119601900D928A95AE
:102B2000E1F74A855B8568858F810E94DE038823F3
:102B300089F016E08091A00190916F01891337C050
:102B400067960FB6F894DEBF0FBECDBFDF91CF9171
:102B50001F91089520916F0130E0C901019687709F
:102B600099274091A0014817190699F096E0929F85
:102B7000D001939FB00D1124A059BE4FFE01319694
:102B800001900D929A95E1F780936F010E94E903FD
:102B9000D0CF0E949B0910926F011092A00186E095
:102BA000E9E6F1E0DF011D928A95E9F7C2CF819F46
:102BB000C001112480599E4F0E948813882309F474
:102BC000BFCF8091A00190E00196877099278093F4
:102BD000A001B0CF1F920F920FB60F9211242F9326
:102BE0003F934F935F936F937F938F939F93AF9395
:102BF000BF93CF93DF93EF93FF93D091E900DF7002
:102C00008091EC00C82FC17080FDC0E81092E900EF
:102C10008091F000877F8093F00078940E94A6094D
:102C20001092E9008091F00088608093F000CD2B35
:102C3000CF70C093E900FF91EF91DF91CF91BF91E9
:102C4000AF919F918F917F916F915F914F913F9144
:102C50002F910F900FBE0F901F9018951F920F92FB
:102C60000FB60F9211242F933F934F935F936F935F
:102C70007F938F939F93AF93BF93EF93FF93809135
:102C8000E10082FF09C08091E20082FF05C08091CF
:102C9000E1008B7F8093E1008091DA0080FF24C007
:102CA0008091D80080FF20C08091DA008E7F8093D1
:102CB000DA008091D90080FF9FC080E189BD82E168
:102CC00089BD09B400FEFDCF81E0809310028091A0
:102CD0000302811109C00E945D010E9428028091B7
:102CE000E20084608093E2008091E10080FF17C0E1
:102CF0008091E20080FF13C08091E2008E7F80937C
:102D0000E2008091E20080618093E2008091D8002F
:102D100080628093D80019BC85E080931002809176
:102D2000E10084FF2DC08091E20084FF29C080E192
:102D300089BD82E189BD89B5982F917080FFFBCF55
:102D40008091D8008F7D8093D8008091E1008F7EA4
:102D50008093E1008091E2008F7E8093E200809179
:102D6000E20081608093E20080911102882309F4DF
:102D700049C084E0809310020E949B090E94EF04E6
:102D80008091E10083FF27C08091E20083FF23C090
:102D90008091E100877F8093E10082E080931002C0
:102DA000109211028091E1008E7F8093E10080916A
:102DB000E2008E7F8093E2008091E2008061809348
:102DC000E20042E060E080E00E94F6018091F000C5
:102DD00088608093F000FF91EF91BF91AF919F9138
:102DE0008F917F916F915F914F913F912F910F90B4
:102DF0000FBE0F901F90189519BC109210021092E0
:102E0000030272CF8091E30087FD93E0909310025C
:102E1000B3CFCDB7DEB72A970FB6F894DEBF0FBE9B
:102E2000CDBF84B7877F84BF0FB6F894A8958091F3
:102E30006000886180936000109260000FBE80E89F
:102E400090E00FB6F89480936100909361000FBEFC
:102E500085B7806885BF85B7806885BF87EE92E0BB
:102E600090935101809350010E945D010E942802BD
:102E70008091E20084608093E20078948091100257
:102E80008823A1F01091E9001F709091EC00892F28
:102E9000817090FD80E8182B1092E9008091E80085
:102EA00083FD0E94A6091F701093E90082E084BD93
:102EB00093E095BD9AEF97BD80936E0081EF0E94DD
:102EC000FB0480EF0E94FB0486EC0E94FB0487E673
:102ED0000E94FB0487E30E94FB0401E411E0F80177
:102EE00081918F010E94FB04F1E00F341F07B9F7B5
:102EF0001092DE011092DD011092EE011092ED01B0
:102F00001092E0011092DF011092F0011092EF0197
:102F10001092E2011092E1011092F2011092F1017F
:102F20001092E4011092E3011092F4011092F30167
:102F30001092E6011092E5011092F6011092F5014F
:102F400090E080E00E94E6188A3E9E4F11F00E94B9
:102F5000160982E090E00E94DE188093F8010E943A
:102F6000AD079093DC018093DB010E9423088FEF73
:102F700099EFE0E081509040E040E1F700C00000B0
:102F80000E9423088091ED0180FF08C06FEF7FEF62
:102F900090E080E00E940A190E94ED0283E090E038
:102FA0000E94DE18682F70E090E080E00E94AC0480
:102FB00080E091E09093E8018093E701DD24DA94CA
:102FC0000E942308882359F08FB7F8944091E901B3
:102FD0005091EA016091EB017091EC018FBFADEE71
:102FE000B1E0E9EFF1E010E000E0602F8D919D91FC
:102FF0004191519148175907E9F14827592720E095
:10300000EE24E394F12C5A01AE20BF20AB2869F1E5
:1030100029836A839C012E213F2191E0232B09F40F
:1030200090E09B830E9411038160782F9D838C83A5
:1030300049815A816B818D810E945B15000F111FA0
:10304000F801E750FE4F80819181E826F926F18250
:10305000E0820E94EF049091F701891709F4B0CF44
:103060000E94EF048093F701ABCF2F5FEE0CFF1CA3
:103070002E3049F60F5F1F4F0530110509F0B5CF0F
:10308000DE82DF8218860E9411038160782F9A8782
:1030900089874E815F8168858A850E945B15D9CFBB
:1030A00078941F921FB61F9211248F939F93AF9312
:1030B000BF938091E9019091EA01A091EB01B09159
:1030C000EC010196A11DB11D8093E9019093EA01E5
:1030D000A093EB01B093EC01BF91AF919F918F91C1
:1030E0001F901FBE1F9018951F921FB61F9211248C
:1030F0008F939F93AF93BF938091E9019091EA01E1
:10310000A091EB01B091EC014196A11DB11D8093FE
:10311000E9019093EA01A093EB01B093EC01BF9118
:10312000AF919F918F911F901FBE1F901895052EF4
:1031300097FB1EF400940E94AE1857FD07D00E9422
:10314000BC1807FC03D04EF40C94AE185095409573
:10315000309521953F4F4F4F5F4F08959095809543
:10316000709561957F4F8F4F9F4F0895EE0FFF1F12
:103170000590F491E02D0994A1E21A2EAA1BBB1B25
:10318000FD010DC0AA1FBB1FEE1FFF1FA217B30733
:10319000E407F50720F0A21BB30BE40BF50B661F49
:1031A000771F881F991F1A9469F76095709580950D
:1031B00090959B01AC01BD01CF010895F999FECF17
:1031C00092BD81BDF89A992780B50895A8E1B0E035
:1031D00042E050E00C941219262FF999FECF92BDCF
:1031E00081BDF89A019700B4021639F01FBA20BDCC
:1031F0000FB6F894FA9AF99A0FBE08950396272FFE
:103200000E94ED180E94EC18252F0E94ED18242F23
:103210000C94ED180196272F0E94ED180C94EC18D1
:10322000DC01CB01FC01F999FECF06C0F2BDE1BD86
:10323000F89A319600B40D9241505040B8F7089575
:103240005058BB27AA270E9438190C94501A0E9484
:10325000421A38F00E94491A20F039F49F3F19F4BD
:1032600026F40C943F1A0EF4E095E7FB0C94101A28
:10327000E92F0E94611A58F3BA176207730784078F
:10328000950720F079F4A6F50C949B1A0EF4E095BE
:103290000B2EBA2FA02D0B01B90190010C01CA0110
:1032A000A0011124FF27591B99F0593F50F4503EBB
:1032B00068F11A16F040A22F232F342F4427585FAD
:1032C000F3CF469537952795A795F0405395C9F7C5
:1032D0007EF41F16BA0B620B730B840BBAF091507D
:1032E000A1F0FF0FBB1F661F771F881FC2F70EC01C
:1032F000BA0F621F731F841F48F4879577956795EF
:10330000B795F7959E3F08F0B0CF9395880F08F0DA
:103310009927EE0F9795879508950E94831A90F04C
:103320009F3748F4911116F40C949C1A60E070E0F9
:1033300080E89FE3089526F01B16611D711D811D15
:103340000C94161A0C94311A0E94691A88F09F572F
:1033500098F0B92F9927B751B0F0E1F0660F771FB9
:10336000881F991F1AF0BA95C9F714C0B13091F0AF
:103370000E949B1AB1E008950C949B1A672F782F36
:103380008827B85F39F0B93FCCF386957795679574
:10339000B395D9F73EF490958095709561957F4FE0
:1033A0008F4F9F4F0895E89409C097FB3EF4909586
:1033B0008095709561957F4F8F4F9F4F9923A9F00E
:1033C000F92F96E9BB279395F6958795779567959D
:1033D000B795F111F8CFFAF4BB0F11F460FF1BC0E1
:1033E0006F5F7F4F8F4F9F4F16C0882311F096E974
:1033F00011C0772321F09EE8872F762F05C0662322
:1034000071F096E8862F70E060E02AF09A95660FDA
:10341000771F881FDAF7880F9695879597F9089593
:1034200097F99F6780E870E060E00895882371F461
:10343000772321F09850872B762F07C0662311F44D
:1034400099270DC09051862B70E060E02AF09A9584
:10345000660F771F881FDAF7880F9695879597F97B
:1034600008959F3F31F0915020F4879577956795A7
:10347000B795880F911D9695879597F908959FEFB9
:1034800080EC089500240A941616170618060906FB
:10349000089500240A9412161306140605060895CA
:1034A000092E0394000C11F4882352F0BB0F40F452
:1034B000BF2B11F460FF04C06F5F7F4F8F4F9F4F92
:1034C000089557FD9058440F551F59F05F3F71F014
:1034D0004795880F97FB991F61F09F3F79F087957B
:1034E0000895121613061406551FF2CF4695F1DF04
:1034F00008C0161617061806991FF1CF8695710594
:103500006105089408950E94691AA0F0BEE7B917F2
:1035100088F4BB279F3860F41616B11D672F782FEB
:103520008827985FF7CF869577956795B11D939516
:103530009639C8F30895E894BB2766277727CB010F
:1035400097F908950E94B51A0C94501A0E94421AD5
:1035500038F00E94491A20F0952311F00C94101AAB
:103560000C943F1A11240C949C1A0E94611A70F357
:10357000959FC1F3950F50E0551F629FF001729F18
:10358000BB27F00DB11D639FAA27F00DB11DAA1F27
:10359000649F6627B00DA11D661F829F2227B00D74
:1035A000A11D621F739FB00DA11D621F839FA00DFF
:1035B000611D221F749F3327A00D611D231F849F4F
:1035C000600D211D822F762F6A2F11249F575040A6
:1035D0009AF0F1F088234AF0EE0FFF1FBB1F661F21
:1035E000771F881F91505040A9F79E3F510580F0EA
:1035F0000C94101A0C949C1A5F3FE4F3983ED4F399
:10360000869577956795B795F795E7959F5FC1F78D
:10361000FE2B880F911D9695879597F90895F8943C
:10362000FFCF60076007690769076B0769076907CC
:103630006907600760077007690769077007890AEB
:10364000B10A470CB10A470CE40A050B470C020CFF
:103650000F0C40104010B410B41009117510751003
:0A36600075102511F9110812081267
:10366A00EA02F607E902F207EE0701818283E20025
:10367A00E900EA00B500B600B700CD008301CC002E
:10368A008A019201940121022302240225022602C0
:10369A0027022A02B300B4006F007000F1F0C66777
:1036AA003791929334353666949697F4F5F6F70087
:00000001FF
